:020000040800F2
:1000000000100020C92A00080D2A0008172A00083D
:1000100000000000000000000000000000000000E0
:100020000000000000000000000000001D2A000881
:100030000000000000000000272A0008312A000804
:10004000192B000800000000192B0008192B0008CC
:10005000192B0008192B0008C1210008192B0008D2
:1000600000000000192B0008192B0008192B0008AC
:10007000192B0008192B0008192B0008000000009C
:10008000192B00080000000000000000192B0008D8
:1000900000000000192B0008192B0008192B00087C
:1000A00000000000192B000800000000192B0008B8
:1000B0000000000000000000000000000000000040
:1000C00010B5064C2378002B07D1054B002B02D02E
:1000D000044800E000BF0123237010BD0800002089
:1000E00000000000742B0008044B10B5002B03D057
:1000F0000349044800E000BF10BDC04600000000F6
:100100000C000020742B0008002243088B4274D39B
:1001100003098B425FD3030A8B4244D3030B8B4208
:1001200028D3030C8B420DD3FF22090212BA030C11
:100130008B4202D31212090265D0030B8B4219D3F2
:1001400000E0090AC30B8B4201D3CB03C01A524112
:10015000830B8B4201D38B03C01A5241430B8B425A
:1001600001D34B03C01A5241030B8B4201D30B0343
:10017000C01A5241C30A8B4201D3CB02C01A52416A
:10018000830A8B4201D38B02C01A5241430A8B422D
:1001900001D34B02C01A5241030A8B4201D30B0216
:1001A000C01A5241CDD2C3098B4201D3CB01C01A30
:1001B000524183098B4201D38B01C01A524143093A
:1001C0008B4201D34B01C01A524103098B4201D328
:1001D0000B01C01A5241C3088B4201D3CB00C01A95
:1001E000524183088B4201D38B00C01A524143080D
:1001F0008B4201D34B00C01A5241411A00D2014632
:10020000524110467047FFE701B5002000F006F8A4
:1002100002BDC0460029F7D076E770477047C04658
:1002200080B500AF074B1A68064B10210A431A60CD
:10023000002000F009F802F025FB00231800BD465D
:1002400080BDC0460020024080B582B000AF78601B
:1002500000F038FF0200FA2399001000FFF754FF66
:100260000300180000F00DF9796801235B420022B9
:10027000180000F0E1F800231800BD4602B080BD70
:1002800080B500AF034B1B685A1C024B1A60C04676
:10029000BD4680BD2800002080B500AF024B1B6822
:1002A0001800BD4680BDC0462800002080B584B03F
:1002B00000AF7860FFF7F0FF0300BB607B68FB6076
:1002C000FB68013302D0FB680133FB60C046FFF7D7
:1002D000E3FF0200BB68D31AFA689A42F7D8C04617
:1002E000BD4604B080BD000080B582B000AF020002
:1002F000FB1D1A70FB1D1B781A001F231A40044BAC
:10030000012191400A001A60C046BD4602B080BD7E
:1003100000E100E090B583B000AF02003960FB1D42
:100320001A70FB1D1B787F2B32D92F4AFB1D1B78BF
:1003300019000F230B40083B9B0806339B00D31882
:1003400004331B68FA1D1278110003220A40D20000
:10035000FF2191400A00D2431A4011003B689B01E3
:10036000FF221A40FB1D1B78180003230340DB000B
:100370009A401D48FB1D1B781C000F232340083B9F
:100380009B080A4306339B00C31804331A6027E016
:10039000164AFB1D1B785BB29B08C0339B009B5821
:1003A000FA1D1278110003220A40D200FF21914069
:1003B0000A00D2431A4011003B689B01FF221A40F9
:1003C000FB1D1B78180003230340DB009A400748FD
:1003D000FB1D1B785BB29B080A43C0339B001A507D
:1003E000C046BD4603B090BD00ED00E000E100E076
:1003F00080B582B000AF78607B68013B0C4A9342C5
:1004000001D9012310E00B4B7A68013A5A600123AD
:100410005B4203211800FFF77DFF064B00229A6024
:10042000044B07221A6000231800BD4602B080BDAD
:10043000FFFFFF0010E000E080B584B000AFB960BE
:100440007A600F217B18021C1A70BA687B181B781F
:100450005BB211001800FFF75DFFC046BD4604B057
:1004600080BD80B582B000AF0200FB1D1A70FB1D7D
:100470001B785BB21800FFF737FFC046BD4602B0DD
:1004800080BD80B582B000AF78607B681800FFF750
:10049000AFFF03001800BD4602B080BD80B586B036
:1004A00000AF7860396000237B610023FB6000238C
:1004B0003B614FE13B681B6801217A6991400A006A
:1004C0001340FB60FB68002B00D140E13B685B6898
:1004D000022B03D03B685B68122B23D17B69DA08BF
:1004E0007B6808329200D3583B617B690722134036
:1004F0009B000F229A401300DA433B6913403B6193
:100500003B681A697B6907210B409B009A401300E6
:100510003A6913433B617B69DA087B6808329200D1
:100520003969D1507B681B683B617B695B000322A2
:100530009A401300DA433B6913403B613B685B68B8
:1005400003221A407B695B009A4013003A69134307
:100550003B617B683A691A603B685B68012B0BD092
:100560003B685B68022B07D03B685B68112B03D0AC
:100570003B685B68122B30D17B689B683B617B6971
:100580005B0003229A401300DA433B6913403B614E
:100590003B68DA687B695B009A4013003A69134351
:1005A0003B617B683A699A607B685B683B610122CA
:1005B0007B699A401300DA433B6913403B613B6817
:1005C0005B681B0901221A407B699A4013003A6953
:1005D00013433B617B683A695A607B68DB683B6127
:1005E0007B695B0003229A401300DA433B691340A6
:1005F0003B613B689A687B695B009A4013003A69EB
:1006000013433B617B683A69DA603B685A68802330
:100610005B05134000D19AE0544B9A69534B01217A
:100620000A439A61514B9B6901221340BB60BB682E
:100630004F4A7B699B0802339B009B583B617B6957
:10064000032213409B000F229A401300DA433B69B8
:1006500013403B617A689023DB059A4213D07B6894
:10066000444A93420DD07B68434A934207D07B684B
:10067000424A934201D1032306E0052304E002230A
:1006800002E0012300E000237A6903210A4092007E
:1006900093403A6913433B6135497B699B080233B8
:1006A0009B003A695A50364B1B683B61FB68DA4342
:1006B0003B6913403B613B685A6880235B021340EF
:1006C00003D03A69FB6813433B612D4B3A691A60CA
:1006D0002B4B5B683B61FB68DA433B6913403B6132
:1006E0003B685A6880239B02134003D03A69FB6839
:1006F00013433B61224B3A695A60214B9B683B6133
:10070000FB68DA433B6913403B613B685A688023CE
:100710005B03134003D03A69FB6813433B61184BFA
:100720003A699A60164BDB683B61FB68DA433B69C8
:1007300013403B613B685A6880239B03134003D0FE
:100740003A69FB6813433B610D4B3A69DA607B6998
:1007500001337B613B681A687B69DA40131E00D065
:10076000A8E6C046BD4606B080BDC04600100240A7
:10077000000001400004004800080048000C004848
:100780000004014080B584B000AF78600A00BB1C53
:100790001A807B681B69BA1C1288134004D00F238F
:1007A000FB1801221A7003E00F23FB1800221A70B5
:1007B0000F23FB181B781800BD4604B080BD80B520
:1007C00082B000AF786008001100BB1C021C1A80C8
:1007D0007B1C0A1C1A707B1C1B78002B04D0BB1CD2
:1007E0001A887B689A6103E0BB1C1A887B689A624E
:1007F000C046BD4602B080BD80B582B000AF0200E9
:10080000BB1D1A80094B5B69BA1D1288134008D0C2
:10081000064BBA1D12885A61BB1D1B88180000F0D8
:1008200007F8C046BD4602B080BDC0460004014086
:1008300080B582B000AF0200BB1D1A80C046BD4625
:1008400002B080BD80B586B000AF786000233B6108
:100850007B681B680122134000D18DE0C34B5B68AD
:100860000C221340042B0ED0C04B5B680C221340AB
:10087000082B16D1BD4B5A6880235B021A40802397
:100880005B029A420DD1B94B1A6880239B02134038
:1008900000D170E07B685B68002B00D06BE0012327
:1008A000B6E27B685B68012B07D1B04B1A68AF4B8F
:1008B000802149020A431A602FE07B685B68002BA5
:1008C0000CD1AA4B1A68A94BA9490A401A60A74B38
:1008D0001A68A64BA7490A401A601EE07B685B684D
:1008E000052B0ED1A14B1A68A04B8021C9020A43E7
:1008F0001A609E4B1A689D4B802149020A431A6078
:100900000BE09A4B1A68994B99490A401A60974B29
:100910001A68964B97490A401A607B685B68002BFF
:1009200014D0FFF7B9FC03003B6108E0FFF7B4FC0B
:1009300002003B69D31A642B01D9032368E28B4B75
:100940001A6880239B021340F0D015E0FFF7A4FC47
:1009500003003B6108E0FFF79FFC02003B69D31AEC
:10096000642B01D9032353E2804B1A6880239B0236
:100970001340F0D100E0C0467B681B6802221340A0
:1009800000D169E0794B5B680C2213400BD0774BA8
:100990005B680C221340082B1CD1744B5A688023CF
:1009A0005B02134016D1714B1B680222134005D025
:1009B0007B68DB68012B01D0012329E26B4B1B68AC
:1009C000F822934319007B681B69DA00674B0A43DE
:1009D0001A6041E07B68DB68002B24D0634B1A6807
:1009E000624B01210A431A60FFF756FC03003B618A
:1009F00008E0FFF751FC02003B69D31A022B01D932
:100A0000032305E2594B1B6802221340F1D0574BD8
:100A10001B68F822934319007B681B69DA00534B6B
:100A20000A431A6018E0514B1A68504B01218A435F
:100A30001A60FFF731FC03003B6108E0FFF72CFC74
:100A400002003B69D31A022B01D90323E0E1474B93
:100A50001B6802221340F1D17B681B6808221340F7
:100A600036D07B68DB69002B19D0404B5A6A3F4B6C
:100A700001210A435A62FFF70FFC03003B6108E0C3
:100A8000FFF70AFC02003B69D31A022B01D90323AA
:100A9000BEE1364B5B6A02221340F1D018E0334BC3
:100AA0005A6A324B01218A435A62FFF7F5FB030071
:100AB0003B6108E0FFF7F0FB02003B69D31A022B11
:100AC00001D90323A4E1294B5B6A02221340F1D12F
:100AD0007B681B680422134000D1B5E01723FB1884
:100AE00000221A70214BDA6980235B05134011D173
:100AF0001E4BDA691D4B802149050A43DA611B4B05
:100B0000DA6980235B051340FB60FB681723FB1841
:100B100001221A70184B1A6880235B0013401AD107
:100B2000154B1A68144B802149000A431A60FFF7DD
:100B3000B3FB03003B6108E0FFF7AEFB02003B693B
:100B4000D31A642B01D9032362E10B4B1A6880236B
:100B50005B001340F0D07B689B68012B0ED1034BE8
:100B60001A6A024B01210A431A6235E00010024062
:100B7000FFFFFEFFFFFFFBFF007000407B689B68EC
:100B8000002B0CD1A44B1A6AA34B01218A431A6291
:100B9000A14B1A6AA04B04218A431A621CE07B68AD
:100BA0009B68052B0CD19C4B1A6A9B4B04210A4372
:100BB0001A62994B1A6A984B01210A431A620BE098
:100BC000954B1A6A944B01218A431A62924B1A6A16
:100BD000914B04218A431A627B689B68002B14D0D6
:100BE000FFF75AFB03003B6109E0FFF755FB0200EA
:100BF0003B69D31A894A934201D9032308E1864B02
:100C00001B6A02221340F0D013E0FFF745FB0300FC
:100C10003B6109E0FFF740FB02003B69D31A7F4AC2
:100C2000934201D90323F3E07B4B1B6A022213405A
:100C3000F0D11723FB181B78012B05D1764BDA690D
:100C4000754B77490A40DA617B681B6810221340B4
:100C500063D07B685B69012B2AD16F4B5A6B6E4B5B
:100C600004210A435A636C4B5A6B6B4B01210A43B4
:100C70005A63FFF711FB03003B6108E0FFF70CFB31
:100C800002003B69D31A022B01D90323C0E0624B57
:100C90005B6B02221340F1D05F4B5B6BF8229343F6
:100CA00019007B689B69DA005B4B0A435A6334E0A6
:100CB0007B685B69053311D1574B5A6B564B042146
:100CC0008A435A63544B5B6BF822934319007B6849
:100CD0009B69DA00504B0A435A631EE04E4B5A6B35
:100CE0004D4B04210A435A634B4B5A6B4A4B01212B
:100CF0008A435A63FFF7D0FA03003B6108E0FFF72D
:100D0000CBFA02003B69D31A022B01D903237FE0FF
:100D1000414B5B6B02221340F1D17B681B6A002BB5
:100D200000D174E03C4B5B680C221340082B00D1CF
:100D30006BE07B681B6A022B4CD1374B1A68364B31
:100D400038490A401A60FFF7A7FA03003B6108E040
:100D5000FFF7A2FA02003B69D31A022B01D9032341
:100D600056E02D4B1A6880239B041340F0D12A4B88
:100D7000DB6A0F22934319007B68DA6A264B0A4329
:100D8000DA62254B5B68284A134019007B689A6A2F
:100D90007B685B6A1A43204B0A435A601E4B1A68F1
:100DA0001D4B802149040A431A60FFF775FA0300BE
:100DB0003B6108E0FFF770FA02003B69D31A022B8F
:100DC00001D9032324E0144B1A6880239B041340A9
:100DD000F0D01CE0104B1A680F4B12490A401A6001
:100DE000FFF75AFA03003B6108E0FFF755FA0200EB
:100DF0003B69D31A022B01D9032309E0064B1A6879
:100E000080239B041340F0D101E0012300E0002384
:100E10001800BD4606B080BD0010024088130000D7
:100E2000FFFFFFEFFFFFFFFEFFFFC2FF80B584B0B3
:100E300000AF786039600023FB606A4B1B680122B9
:100E400013403A689A4211D9664B1B6801229343BA
:100E50001900644B3A680A431A60624B1B6801220E
:100E600013403A689A4201D00123B6E07B681B68C0
:100E70000222134009D05C4B5B68F02293431900B7
:100E80007B689A68584B0A435A607B681B6801224A
:100E9000134000D167E07B685B68012B07D1524BA0
:100EA0001A6880239B02134014D1012395E07B68CC
:100EB0005B68022B07D14C4B1A6880239B041340BC
:100EC00008D1012389E0484B1B680222134001D15D
:100ED000012382E0444B5B680322934319007B6843
:100EE0005A68414B0A435A60FFF7D6F90300FB608A
:100EF0007B685B68012B11D109E0FFF7CDF9020097
:100F0000FB68D31A394A934201D9032365E0364B73
:100F10005B680C221340042BEFD124E07B685B68F4
:100F2000022B1BD109E0FFF7B7F90200FB68D31AC7
:100F30002E4A934201D903234FE02B4B5B680C22CE
:100F40001340082BEFD10EE0FFF7A6F90200FB6873
:100F5000D31A264A934201D903233EE0224B5B6811
:100F60000C221340F0D11F4B1B68012213403A683A
:100F70009A4211D21B4B1B68012293431900194B53
:100F80003A680A431A60174B1B68012213403A68FB
:100F90009A4201D0012320E07B681B6804221340A1
:100FA00009D0114B5B68124A134019007B68DA685C
:100FB0000D4B0A435A6000F021F801000A4B5B68B0
:100FC0001B090F2213400B4AD35C0A00DA400A4B7C
:100FD0001A600020FFF738F900231800BD4604B05E
:100FE00080BDC0460020024000100240881300006F
:100FF000FFF8FFFFAC2B00080400002090B58FB075
:1010000000AF1423FB182B4A13CA13C312681A60CB
:101010003B1D294A13CA13C312681A600023FB62DE
:101020000023BB6200237B6300237B6200233B63BE
:10103000224B5B68FB62FB6A0C221340042B02D03C
:10104000082B03D02DE01E4B3B632DE0FB6A9B0C6D
:101050000F2213401422BA18D35C7B62174BDB6A51
:101060000F2213403A1DD35CBB62FA6A80235B02F5
:10107000134009D0B96A1248FFF746F803001A0076
:101080007B6A53437B6309E0796A0A005201521A72
:1010900093019B1ADB005B181B027B637B6B3B633A
:1010A00002E0074B3B63C0463B6B1800BD460FB0E8
:1010B00090BDC0468C2B00089C2B000800100240FD
:1010C00000127A0080B500AF024B1B681800BD46C5
:1010D00080BDC0460400002080B582B000AF7860BB
:1010E0007B68002B01D101231EE07B683D229B5CC5
:1010F000DBB2002B07D17B683C22002199547B682E
:10110000180001F0E3FB7B683D22022199547B68C3
:101110001A687B6804331900100000F011FA7B682C
:101120003D220121995400231800BD4602B080BD24
:1011300080B582B000AF78607B68002B01D10123BD
:101140001EE07B683D229B5CDBB2002B07D17B68F5
:101150003C22002199547B68180000F015F87B6848
:101160003D22022199547B681A687B680433190078
:10117000100000F0E5F97B683D220121995400231D
:101180001800BD4602B080BD80B582B000AF786067
:10119000C046BD4602B080BD80B582B000AF786069
:1011A00039607B681B6839680122180000F0D8FCA0
:1011B0007B681B68134A934209D07B681B68124AFC
:1011C000934204D07B681B68104A934201D10123EB
:1011D00000E00023002B08D07B681B685A6C7B68FA
:1011E0001B68802109020A435A647B681B681A68DD
:1011F0007B681B6801210A431A6000231800BD4662
:1012000002B080BD002C0140004401400048014074
:1012100080B584B000AFF860B9607A60FB683C22AA
:101220009B5C012B01D10223A4E0FB683C2201213D
:101230009954FB683D22022199547B68042B29D0E4
:1012400002D8002B05D08CE0082B46D00C2B65D0A3
:1012500087E0FB681B68BA681100180000F0DEF92F
:10126000FB681B689A69FB681B6808210A439A613E
:10127000FB681B689A69FB681B6804218A439A61B2
:10128000FB681B689969BB681A69FB681B680A439D
:101290009A6166E0FB681B68BA681100180000F0EC
:1012A00041FAFB681B689A69FB681B688021090189
:1012B0000A439A61FB681B689A69FB681B682F499F
:1012C0000A409A61FB681B689969BB681B691A022E
:1012D000FB681B680A439A6143E0FB681B68BA68B5
:1012E0001100180000F0A2FAFB681B68DA69FB68BD
:1012F0001B6808210A43DA61FB681B68DA69FB682E
:101300001B6804218A43DA61FB681B68D969BB68E2
:101310001A69FB681B680A43DA6122E0FB681B68F4
:10132000BA681100180000F007FBFB681B68DA6957
:10133000FB681B68802109010A43DA61FB681B68AE
:10134000DA69FB681B680D490A40DA61FB681B68B3
:10135000D969BB681B691A02FB681B680A43DA611A
:10136000C046FB683D2201219954FB683C220021C4
:10137000995400231800BD4604B080BDFFFBFFFF59
:1013800080B584B000AF786039600023FB607B6873
:101390003C229B5C012B01D10223CAE07B683C22EA
:1013A000012199547B683D22022199547B681B6876
:1013B0009B68FB60FB6877229343FB60FB685F4A96
:1013C0001340FB607B681B68FA689A603B681B6887
:1013D000402B00D178E00ED8102B00D18BE003D841
:1013E000002B00D180E09BE0202B00D18AE0302B45
:1013F00000D18EE094E0702B17D004D8502B43D04E
:10140000602B51D08CE080225201934204D0802284
:101410009201934224D083E07B681B689A687B68C2
:101420001B6807218A439A607AE07B6818683B68EA
:1014300099683B685A683B68DB6800F06FFB7B6823
:101440001B689B68FB60FB6877229343FB60FB682B
:1014500077221343FB607B681B68FA689A605FE041
:101460007B6818683B6899683B685A683B68DB682A
:1014700000F054FB7B681B689A687B681B688021BE
:10148000C9010A439A604BE07B6818683B68596859
:101490003B68DB681A0000F0B9FA7B681B685021D2
:1014A000180000F01BFB3BE07B6818683B6859683C
:1014B0003B68DB681A0000F0DBFA7B681B68602180
:1014C000180000F00BFB2BE07B6818683B6859683C
:1014D0003B68DB681A0000F099FA7B681B684021C2
:1014E000180000F0FBFA1BE07B681B680021180065
:1014F00000F0F4FA14E07B681B681021180000F07B
:10150000EDFA0DE07B681B682021180000F0E6FA78
:1015100006E07B681B683021180000F0DFFAC04647
:101520007B683D22012199547B683C22002199541B
:1015300000231800BD4604B080BDC046FF00FFFF79
:1015400080B584B000AF786039600023FB607B68B1
:101550001B68FB607B682B4A934203D07B682A4A56
:10156000934208D1FB6870229343FB603B685B6841
:10157000FA681343FB607B68224A93420FD07B6872
:10158000214A93420BD07B68204A934207D07B6864
:101590001F4A934203D07B681E4A934208D1FB68DE
:1015A0001D4A1340FB603B68DB68FA681343FB602D
:1015B000FB68802293431A003B685B691343FB601E
:1015C0007B68FA681A603B689A687B68DA623B68F5
:1015D0001A687B689A627B680A4A934207D07B68E4
:1015E0000B4A934203D07B680A4A934203D13B687B
:1015F0001A697B681A637B6801225A61C046BD463E
:1016000004B080BD002C01400004004000200040D8
:101610000044014000480140FFFCFFFF80B586B058
:1016200000AF786039600023FB6000237B610023FA
:101630003B617B681B6A012293431A007B681A6234
:101640007B681B6A7B617B685B683B617B689B692D
:10165000FB60FB6870229343FB60FB6803229343AB
:10166000FB603B681B68FA681343FB607B690222DE
:1016700093437B613B689B687A6913437B617B681A
:10168000234A934207D07B68224A934203D07B6867
:10169000214A93420CD17B69082293437B613B68CA
:1016A000DB687A6913437B617B69042293437B6126
:1016B0007B68174A934207D07B68164A934203D04F
:1016C0007B68154A934211D13B69144A13403B6130
:1016D0003B69134A13403B613B685B693A691343BA
:1016E0003B613B689B693A6913433B617B683A699C
:1016F0005A607B68FA689A613B685A687B685A63EB
:101700007B687A691A62C046BD4606B080BDC04695
:10171000002C01400044014000480140FFFEFFFF53
:10172000FFFDFFFF80B586B000AF78603960002311
:10173000FB6000237B6100233B617B681B6A1022F6
:1017400093431A007B681A627B681B6A7B617B6823
:101750005B683B617B689B69FB60FB682C4A1340BC
:10176000FB60FB682B4A1340FB603B681B681B0255
:10177000FA681343FB607B69202293437B613B68DB
:101780009B681B017A6913437B617B68224A934201
:101790000DD17B69802293437B613B68DB681B0131
:1017A0007A6913437B617B69402293437B617B6849
:1017B000194A934207D07B68184A934203D07B684A
:1017C000174A934213D13B69164A13403B613B6968
:1017D000154A13403B613B685B699B003A691343C0
:1017E0003B613B689B699B003A6913433B617B68A3
:1017F0003A695A607B68FA689A613B685A687B6804
:101800009A637B687A691A62C046BD4606B080BD9D
:10181000FF8FFFFFFFFCFFFF002C01400044014051
:1018200000480140FFFBFFFFFFF7FFFF80B586B0D8
:1018300000AF786039600023FB6000237B610023E8
:101840003B617B681B6A334A1A407B681A627B687B
:101850001B6A7B617B685B683B617B68DB69FB6063
:10186000FB6870229343FB60FB6803229343FB6099
:101870003B681B68FA681343FB607B69264A134088
:101880007B613B689B681B027A6913437B617B68C1
:10189000224A93420DD17B69214A13407B613B6808
:1018A000DB681B027A6913437B617B691D4A134025
:1018B0007B617B68194A934207D07B681A4A93423E
:1018C00003D07B68194A934213D13B69184A1340ED
:1018D0003B613B69174A13403B613B685B691B01F5
:1018E0003A6913433B613B689B691B013A691343A7
:1018F0003B617B683A695A607B68FA68DA613B68E9
:101900005A687B68DA637B687A691A62C046BD46AA
:1019100006B080BDFFFEFFFFFFFDFFFF002C014072
:10192000FFF7FFFFFFFBFFFF0044014000480140BD
:10193000FFEFFFFFFFDFFFFF80B586B000AF7860ED
:10194000396000233B610023FB6000237B617B68DF
:101950001B6A264A1A407B681A627B681B6AFB6016
:101960007B685B687B617B68DB693B613B69204A24
:1019700013403B613B691F4A13403B613B681B6856
:101980001B023A6913433B61FB681B4A1340FB602F
:101990003B689B681B03FA681343FB607B68174A2C
:1019A000934207D07B68164A934203D07B68154A5E
:1019B000934209D17B69144A13407B613B685B69A0
:1019C0009B017A6913437B617B687A695A607B6803
:1019D0003A69DA613B685A687B681A647B68FA681E
:1019E0001A62C046BD4606B080BDC046FFEFFFFF8D
:1019F000FF8FFFFFFFFCFFFFFFDFFFFF002C014019
:101A00000044014000480140FFBFFFFF80B586B0A1
:101A100000AFF860B9607A6000237B6100233B610E
:101A2000FB681B6A3B61FB681B6A012293431A0037
:101A3000FB681A62FB689B697B617B69F0229343B8
:101A40007B617B681B017A6913437B613B690A22D6
:101A500093433B613A69BB6813433B61FB687A6916
:101A60009A61FB683A691A62C046BD4606B080BDFD
:101A700080B586B000AFF860B9607A6000237B6102
:101A800000233B61FB681B6A102293431A00FB682A
:101A90001A62FB689B697B61FB681B6A3B617B691F
:101AA0000D4A13407B617B681B037A6913437B619A
:101AB0003B69A02293433B61BB681B013A69134316
:101AC0003B61FB687A699A61FB683A691A62C046B1
:101AD000BD4606B080BDC046FF0FFFFF80B584B095
:101AE00000AF78600A00BB1C1A800023FB607B6893
:101AF0009B68FB60FB6870229343FB60BB1C1B88E8
:101B0000072213439BB21A00FB681343FB607B68F8
:101B1000FA689A60C046BD4604B080BD80B586B004
:101B200000AFF860B9607A603B6000237B61FB68BE
:101B30009B687B617B69094A13407B613B681A02A1
:101B40007B681A43BB6813437A6913437B61FB6864
:101B50007A699A60C046BD4606B080BDFF00FFFFAF
:101B600080B586B000AFF860B9607A6000237B6111
:101B70000122BB689A4013007B61FB681B6A7A698B
:101B8000D2431A40FB681A62FB681A6A7968BB681C
:101B900099400B001A43FB681A62C046BD4606B066
:101BA00080BD80B582B000AF786039607B683C2230
:101BB0009B5C012B01D1022332E07B683C22012196
:101BC00099547B683D22022199547B681B685A68AE
:101BD0007B681B6870218A435A607B681B68596860
:101BE0003B681A687B681B680A435A607B681B68FD
:101BF0009A687B681B6880218A439A607B681B68AF
:101C000099683B685A687B681B680A439A607B68DE
:101C10003D22012199547B683C22002199540023E4
:101C20001800BD4602B080BD80B584B000AF7860BA
:101C300039600023FB607B683C229B5C012B01D157
:101C400002234DE07B683C22012199547B683D22B0
:101C500002219954FB68FF2293431A003B68DB681A
:101C60001343FB60FB68204A1A403B689B681343A0
:101C7000FB60FB681D4A1A403B685B681343FB60CE
:101C8000FB681B4A1A403B681B681343FB60FB68F8
:101C9000184A1A403B681B691343FB60FB68164AED
:101CA0001A403B685B691343FB60FB68134A1A40A8
:101CB0003B689B691343FB60FB68114A1A403B6811
:101CC0009B691343FB607B681B68FA685A647B68F6
:101CD0003D22012199547B683C2200219954002324
:101CE0001800BD4604B080BDFFFCFFFFFFFBFFFFF7
:101CF000FFF7FFFFFFEFFFFFFFDFFFFFFFBFFFFF6C
:101D0000FF7FFFFF80B584B000AFF860B960BB1DF6
:101D10001A80FB680022DA60FB68BA68DA61FB6847
:101D2000BA1D12881A85FB68084A1A81FB6831229D
:101D300000219954FB68322200219954FB6800224B
:101D40005A63C046BD4604B080BDC046C409000009
:101D500080B584B000AFF860B9603B60BB1D1A80ED
:101D6000FB6800221A61FB68BA681A62FB683A686D
:101D70005A62FB68BA1D12885A85FB681822BA1885
:101D800012889A85FB6800221A83FB68104A1A8021
:101D9000FB68104A5A80FB682F2201219954FB6886
:101DA00000225A61FB6800229A76FB682E220021ED
:101DB0009954FB68302201219954FB683022995CC8
:101DC000FB682F229954C046BD4604B080BDC04672
:101DD0000180FFFFFE7F0000B0B584B000AFF86067
:101DE0000C00100019000A257B19221C1A800824F7
:101DF0003B19021C1A80BB1D0A1C1A80FB683A1989
:101E000012881A80FB68BA1D12885A807B1900223A
:101E10009A5EFB681100180000F0D8F8031E04D188
:101E20000A23FB18FA6812881A80FB682022BA1865
:101E3000302112785A54FB683022995CFB682F22BB
:101E40009954FB682F229B5C2422BA1812789A427C
:101E500005D9FB682422BA18302112785A54FB683D
:101E60002822BA182E2112785A54C046BD4604B012
:101E7000B0BD80B582B000AF78607B681B8B1BB2B1
:101E80001800BD4602B080BD80B586B000AF786056
:101E9000FEF702FA02007B685B6B9A4200D28DE08B
:101EA000FEF7FAF9030014331A007B685A6317230C
:101EB000FB1800221A707B68DA697B681B8D190099
:101EC0001000FEF75FFC031E03D11723FB18C82286
:101ED0001A707B6832229B5C002B0FD01723FB18F3
:101EE0001A787B681100180000F04AF90300312BC2
:101EF00013DC7B683222002199540EE01723FB1873
:101F00001A787B681100180000F03AF90300642B7E
:101F100003DD7B683222012199547B6832229B5C6D
:101F2000002B27D0FEF7B8F902007B68DB68D31AD4
:101F3000FB607B68DB68002B05D07B681B891A007F
:101F4000FB68934205D9FEF7A7F902007B68DA60C7
:101F500034E0FB681C4A934230D97B6831229B5C99
:101F6000002B01D000232AE07B6831220121995403
:101F7000022324E07B68DB68002B04D07B683122DD
:101F80009B5C002B08D07B680022DA607B683122E2
:101F900000219954002312E0FEF77EF902007B68CD
:101FA000DB68D31A3B617B680022DA607B681B899F
:101FB0001A003B69934201D2012300E0002318007C
:101FC000BD4606B080BDC046DC05000080B582B0CD
:101FD00000AF78600A00BB1C1A807B6800229B5E01
:101FE000BA1C0021525E9A420DDB7B6802229B5E86
:101FF000BA1C0021525E9A4205DC7B68BA1C12882A
:102000001A83012300E000231800BD4602B080BD02
:1020100090B585B000AF78607B681A6A7B685B8D8D
:1020200019001000FEF7AEFB0300013B5A4253417A
:10203000DAB20E243B191A70FEF72EF90300BB60CA
:102040003B191B78002B20D17B681B69002B08D023
:102050007B681B69BA68D31A7A681289934200D8E0
:102060008AE07B68BA681A617B685A6A7B689B8DD4
:1020700019001000FEF786FB0300013B5A42534152
:10208000DBB21A007B689A7676E07B681B69002BCE
:1020900000D171E00F23FB187A682F21525C1A706F
:1020A0007B681B69BA68D31A7A681289934260D236
:1020B0007B685B69BA68D21A2C23FF339A4205D831
:1020C0000F23FB187A683021525C1A707B68BA685B
:1020D0005A617B689B7EDBB2002B0DD07B681B8B2B
:1020E0001BB29AB20F23FB181B789BB2D31A9BB278
:1020F0001AB27B681A830CE07B681B8B1BB29AB206
:102100000F23FB181B789BB2D3189BB21AB27B68C3
:102110001A837B681B8B1AB27B6802215B5E9A4232
:102120000FDD7B682E229B5C002B05D07B68002294
:102130009A5E7B681A8304E07B6802229A5E7B6861
:102140001A837B681B8B1AB27B6800215B5E9A4204
:102150000FDA7B682E229B5C002B05D07B68022265
:102160009A5E7B681A8304E07B6800229A5E7B6833
:102170001A837B6800221A61C046BD4605B090BD37
:1021800080B584B000AF786039600F203B18022220
:102190001A703A687B6859683B181B78CB189B0803
:1021A000D21A7B685B68D2187B685A607B685A6871
:1021B0003B181B78D3189B081800BD4604B080BD9F
:1021C00080B500AF084B1B78DBB2002B03D1082091
:1021D000FEF712FB06E0054B1800FFF719FF044B52
:1021E00008225A61BD4680BD240000202C0000203A
:1021F0000004014080B582B000AF0200BB1D1A8010
:10220000BB1D1B883F2B0CD8BB1D1A881A4B3F21C6
:102210000A409A63194B00229A63184B0022DA6332
:1022200026E0BB1D1B887F2B11D8BB1DBA1D128851
:10223000403A1A80104B3F229A63BB1D1A880F4BFD
:102240003F210A409A630D4B0022DA6310E0BB1D68
:10225000BA1D1288803A1A80074B3F229A63074BB7
:102260003F229A63BB1D1A88044B3F210A40DA6360
:10227000C046BD4602B080BD00040040002C0140B5
:1022800080B582B000AF0200BB1D1A80BB1D1B8849
:10229000012B0DD0022B15D0002B1DD1154B3F2249
:1022A0009A63154B00229A63134B0022DA631DE0F8
:1022B000104B3F229A63104B3F229A630E4B002231
:1022C000DA6313E00B4B3F229A630B4B3F229A6376
:1022D000094B3F22DA6309E0064B00229A63064B62
:1022E00000229A63044B0022DA63C046C046BD4612
:1022F00002B080BD00040040002C014090B587B0C2
:1023000004AFFDF78DFF00F0DBF800F055FA00F0A8
:10231000D5F900F015F9FA239B001800FDF7C6FF68
:102320009023DB05012202211800FEF748FA5D4BDD
:1023300004211800FEF730FF5A4B08211800FEF761
:102340002BFF594B04211800FEF726FF9023D905D7
:10235000564B01221800FFF7D5FC9023DA05902395
:10236000D90552481023009313000822FFF7F0FC10
:102370004F4B1B8819B24D4800230293052301934C
:1023800001230093BF230122FFF726FD484B1B8842
:102390001800FFF72FFF474B01221A70434B18001C
:1023A000FFF767FD03001A00BB1D1A80404B1B8816
:1023B000BA1D12889A4212D03D4BBA1D12881A805B
:1023C0003D4B1B78002B05D0BB1D1B881800FFF769
:1023D00011FF04E0BB1D1B881800FFF751FF7C1D97
:1023E000324B1800FFF750FD030023707B1D1B7854
:1023F000012B02D0022B42D050E02F4B1B785A42C7
:102400005341DBB21A002C4B1A702B4B1B78002B5C
:102410001BD0BB1D1B889B019BB220339AB2244B5F
:102420001A80234B1B8819B22048002302930523EE
:10243000019301230093BF230022FFF7CDFC1C4B27
:102440001B881800FFF7D6FE28E0BB1D1B889B09E0
:102450009AB2174B1A80164B1B8819B213480023E7
:102460000293012301930123009302230022FFF72B
:10247000B3FC0F4B1B881800FFF702FF0EE0002093
:10248000FFF7B8FE0D4B1800FDF710FF9023DB059A
:10249000002202211800FEF792F9C0466420FDF7E1
:1024A00005FF7BE7A4000020640000202C00002032
:1024B00000000020240000200200002088130000FB
:1024C00090B591B000AF10243B19180030231A00CA
:1024D000002100F047FB3B00180010231A000021E8
:1024E00000F040FB21007B1802221A607B180122B9
:1024F000DA607B1810221A617B1800221A627B189E
:102500001800FEF79FF9031E01D000F0B7F93B0059
:1025100007221A603B0000225A603B0000229A60AA
:102520003B000022DA603B0000211800FEF77EFC31
:10253000031E01D000F0A2F9C046BD4611B090BD07
:1025400080B594B000AF4023FB18180010231A0088
:10255000002100F007FB3823FB18180008231A009D
:10256000002100F0FFFA1C23FB1818001C231A009E
:10257000002100F0F7FA3B0018001C231A0000218C
:1025800000F0F0FA4B4B4C4A1A604A4B03225A6057
:10259000484B00229A60474B3F22DA60454B0022AD
:1025A0001A61444B00225A61424B00229A61414B0E
:1025B0001800FEF791FD031E01D000F05FF94021E5
:1025C0007B18802252011A607A183A4B11001800C9
:1025D000FEF7D6FE031E01D000F050F9354B18006F
:1025E000FEF7A6FD031E01D000F048F938217B1844
:1025F00000221A607B1800225A607A182D4B1100B5
:102600001800FFF7CEFA031E01D000F037F91C21A5
:102610007B1860221A607B1800225A607B18002207
:102620009A607B180022DA607B1800221A617B18FE
:1026300000225A617B1800229A6179181D4B0422EE
:102640001800FEF7E5FD031E01D000F017F91C236A
:10265000F918184B08221800FEF7DAFD031E01D006
:1026600000F00CF93B0000221A603B0000225A6087
:102670003B0000229A603B000022DA603B0000220F
:102680001A613B00802292015A613B0000229A614C
:102690003A00084B11001800FFF7C6FA031E01D0DC
:1026A00000F0ECF8034B180000F044F9C046BD46BA
:1026B00014B080BDA4000020002C014080B58EB075
:1026C00000AF2823FB18180010231A00002100F087
:1026D00049FA2023FB18180008231A00002100F0F3
:1026E00041FA3B1D18001C231A00002100F03AFAA1
:1026F0002F4B304A1A602E4B03225A602C4B00227B
:102700009A602B4B3F22DA60294B00221A61284B3A
:1027100000229A61264B1800FEF7DEFC031E01D052
:1027200000F0ACF828217B18802252011A607A1838
:102730001F4B11001800FEF723FE031E01D000F00E
:102740009DF81B4B1800FEF7F3FC031E01D000F0B0
:1027500095F820217B1800221A607B1800225A600D
:102760007A18134B11001800FFF71BFA031E01D053
:1027700000F084F83B1D60221A603B1D00225A6065
:102780003B1D00229A603B1D00221A61391D084B37
:1027900004221800FEF73CFD031E01D000F06EF885
:1027A000034B180000F0C6F8C046BD460EB080BD11
:1027B000640000200004004080B586B000AF3B1DDF
:1027C000180014231A00002100F0CCF9294B5A6993
:1027D000284B802189020A435A61264B5A6980237B
:1027E0009B0213403B603B689023DB0500220221E3
:1027F0001800FDF7E4FF3B1D11221A603B1D00226B
:102800005A603B1D01229A603A1D9023DB0511009E
:102810001800FDF743FE3B1D02221A603B1D0122FA
:102820005A603B1D00229A603B1D0022DA603A1D6F
:102830009023DB0511001800FDF730FE3B1D082238
:102840001A603B1D0C4A5A603B1D01229A603A1DDA
:102850009023DB0511001800FDF720FE0022012166
:102860000620FDF7E9FD0620FDF7FBFDC046BD464D
:1028700006B080BD001002400000311080B500AFEE
:10288000FEE7000080B582B000AF0F4B9A690E4B97
:1028900001210A439A610C4B9B69012213407B6022
:1028A0007B68094BDA69084B802149050A43DA61E4
:1028B000054BDA6980235B0513403B603B68C046EB
:1028C000BD4602B080BDC0460010024080B584B055
:1028D00000AF78607B681B68134A93420ED1134B9C
:1028E0009A69124B802109010A439A610F4B9A6938
:1028F00080231B011340FB60FB6810E07B681B68B2
:102900000B4A93420BD1094BDA69084B02210A4367
:10291000DA61064BDB6902221340BB60BB68C0462C
:10292000BD4604B080BDC046002C014000100240EE
:102930000004004080B58AB000AF78601423FB1813
:10294000180014231A00002100F00CF97B681B68A2
:102950002B4A934226D12B4B5A692A4B802189025C
:102960000A435A61274B5A6980239B0213403B61FB
:102970003B6914217B18C022D2001A607B18022206
:102980005A607B1800229A607B180022DA607B185C
:1029900002221A617A189023DB0511001800FDF756
:1029A0007DFD29E07B681B68174A934224D1154BB3
:1029B0005A69144B802189020A435A61114B5A69A2
:1029C00080239B021340FB60FB6814217B1880224C
:1029D0001A607B1802225A607B1800229A607B18CA
:1029E0000022DA607B1801221A617A189023DB0535
:1029F00011001800FDF752FDC046BD460AB080BD6B
:102A0000002C0140001002400004004080B500AFDF
:102A1000C046BD4680BD80B500AFFEE780B500AFC3
:102A2000C046BD4680BD80B500AFC046BD4680BD36
:102A300080B500AFFDF724FCC046BD4680BD000058
:102A400080B500AF1A4B1A68194B01210A431A606E
:102A5000174B5A68164B17490A405A60144B1A68AC
:102A6000134B15490A401A60114B1A68104B134951
:102A70000A401A600E4B5A680D4B11490A405A60C1
:102A80000B4BDA6A0A4B0F218A43DA62084B1A6B46
:102A9000074B0C490A401A63054B5A6B044B012142
:102AA0008A435A63024B00229A60C046BD4680BDED
:102AB000001002400CB8FF08FFFFF6FEFFFFFBFF0F
:102AC000FFFFC0FFECFEFFFF0D4885460D480E4995
:102AD0000E4A002302E0D458C4500433C4188C4278
:102AE000F9D30B4A0B4C002301E013600432A242DD
:102AF000FBD3FFF7A5FF00F011F8FFF7FFFBFEE7A0
:102B0000001000200000002008000020C42B000856
:102B100008000020E4000020FEE7000070B5002659
:102B20000C4D0D4C641BA410A64209D1002600F0E8
:102B300021F80A4D0A4C641BA410A64205D170BDB1
:102B4000B300EB5898470136EEE7B300EB589847CF
:102B50000136F2E7BC2B0008BC2B0008BC2B000898
:102B6000C02B000803001218934200D1704719705F
:102B70000133F9E7F8B5C046F8BC08BC9E4670477B
:0C2B8000F8B5C046F8BC08BC9E46704783
:102B8C0002030405060708090A0B0C0D0E0F1010A2
:102B9C000102030405060708090A0B0C0D0E0F10A1
:102BAC0000000000000000000102030406070809F1
:042BBC00E900000824
:042BC000C100000848
:082BC4003F00010000127A003D
:0400000508002AC9FC
:00000001FF
